:100000000C942A000C943F000C943F000C943F0089
:100010000C943F000C943F000C943F000C943F0064
:100020000C943F000C943F000C943F000C943F0054
:100030000C943F000C943F000C943F000C943F0044
:100040000C943F000C943F000C943F000C943F0034
:100050000C943F0011241FBECFE5D4E0DEBFCDBF1E
:1000600010E0A0E6B0E0EAE5F2E002C005900D92F3
:10007000AA36B107D9F70E94C6000C942B010C9444
:10008000000084E085BB82EE94E00197F1F715BA99
:10009000089585E085BB82EE94E00197F1F781E059
:1000A00085BB0895DF93CF93CDB7DEB72A970FB600
:1000B000F894DEBF0FBECDBFDE011196E0E6F0E0A2
:1000C0008AE001900D928150E1F7FE01319664E0E3
:1000D00042EE54E09E01255F3F4F808182BB65BBAD
:1000E000CA010197F1F715BA3296E217F307A9F79B
:1000F0002A960FB6F894DEBF0FBECDBFCF91DF9129
:100100000895FF920F931F93CF93DF93182F492FDA
:100110009C01E1E0F0E010C0CF01880F991F53E08F
:10012000EE0FFF1F5A95E1F7E80FF91FC9016AE0CA
:1001300070E00E9404019B012A3031056CF785E0D4
:10014000F82EC2EED4E001E0812F942FBF010E946F
:100150000401605D62BBF5BACE010197F1F705BB02
:10016000812F942FBF010E940401182F492FCF0126
:100170006AE070E00E940401FB016115710521F73E
:10018000DF91CF911F910F91FF900895AF92BF9291
:10019000CF92DF92EF92FF920F931F93CF93DF9353
:1001A0008FEF81BB81B384BB84B387BB87B38ABB2A
:1001B0000E945200A0E4AA2EFEEEBF2E08EA11E62D
:1001C000DD24D394E4E0CE2E72EEE72E74E0F72E19
:1001D000A7B8B6B8C4B1D5B1349BFECFCE010E944A
:1001E0008100C8010197F1F7C934D10510F418BA9C
:1001F00001C0D8BAC8010197F1F7D2BAC5BAC70190
:100200000197F1F715BAE4CF97FB092E07260AD01C
:1002100077FD04D00CD006D000201AF470956195BB
:100220007F4F0895F6F7909581959F4F0895AA1BEB
:10023000BB1B51E107C0AA1FBB1FA617B70710F0D1
:10024000A61BB70B881F991F5A95A9F78095909503
:0A025000BC01CD010895F894FFCF22
:0A025A000100060038000E008000CD
:00000001FF
